{
  "contractName": "pay_geo",
  "abi": [
    {
      "inputs": [],
      "stateMutability": "payable",
      "type": "constructor"
    },
    {
      "inputs": [],
      "name": "InvalidState",
      "type": "error"
    },
    {
      "inputs": [],
      "name": "OnlyEmployee",
      "type": "error"
    },
    {
      "inputs": [],
      "name": "OnlyEmployeer",
      "type": "error"
    },
    {
      "inputs": [],
      "name": "Notice",
      "outputs": [
        {
          "internalType": "string",
          "name": "",
          "type": "string"
        }
      ],
      "stateMutability": "view",
      "type": "function"
    },
    {
      "inputs": [],
      "name": "current_add",
      "outputs": [
        {
          "internalType": "uint256",
          "name": "",
          "type": "uint256"
        }
      ],
      "stateMutability": "view",
      "type": "function"
    },
    {
      "inputs": [],
      "name": "employee",
      "outputs": [
        {
          "internalType": "address payable",
          "name": "",
          "type": "address"
        }
      ],
      "stateMutability": "view",
      "type": "function"
    },
    {
      "inputs": [],
      "name": "employeer",
      "outputs": [
        {
          "internalType": "address payable",
          "name": "",
          "type": "address"
        }
      ],
      "stateMutability": "view",
      "type": "function"
    },
    {
      "inputs": [],
      "name": "max_dis",
      "outputs": [
        {
          "internalType": "uint256",
          "name": "",
          "type": "uint256"
        }
      ],
      "stateMutability": "view",
      "type": "function"
    },
    {
      "inputs": [],
      "name": "min_dis",
      "outputs": [
        {
          "internalType": "uint256",
          "name": "",
          "type": "uint256"
        }
      ],
      "stateMutability": "view",
      "type": "function"
    },
    {
      "inputs": [],
      "name": "state",
      "outputs": [
        {
          "internalType": "enum pay_geo.State",
          "name": "",
          "type": "uint8"
        }
      ],
      "stateMutability": "view",
      "type": "function"
    },
    {
      "inputs": [],
      "name": "value",
      "outputs": [
        {
          "internalType": "uint256",
          "name": "",
          "type": "uint256"
        }
      ],
      "stateMutability": "view",
      "type": "function"
    },
    {
      "inputs": [],
      "name": "sendLocation",
      "outputs": [],
      "stateMutability": "payable",
      "type": "function"
    },
    {
      "inputs": [],
      "name": "confirmLocation",
      "outputs": [],
      "stateMutability": "nonpayable",
      "type": "function"
    },
    {
      "inputs": [],
      "name": "payEmployee",
      "outputs": [],
      "stateMutability": "nonpayable",
      "type": "function"
    },
    {
      "inputs": [],
      "name": "abort",
      "outputs": [],
      "stateMutability": "nonpayable",
      "type": "function"
    }
  ],
  "bytecode": "0x6080604052600a60035560076004556005805533600160006101000a81548173ffffffffffffffffffffffffffffffffffffffff021916908373ffffffffffffffffffffffffffffffffffffffff16021790555060023461006091906100a4565b6000819055506100d5565b6000819050919050565b7f4e487b7100000000000000000000000000000000000000000000000000000000600052601260045260246000fd5b60006100af8261006b565b91506100ba8361006b565b9250826100ca576100c9610075565b5b828204905092915050565b610f6f806100e46000396000f3fe6080604052600436106100a75760003560e01c80635414e4bf116100645780635414e4bf1461019a5780639729f2d2146101c5578063a0a1a7d7146101cf578063c19d93fb146101fa578063dca36b9a14610225578063dd611fb91461023c576100a7565b8063019350d6146100ac5780631655a6a0146100d75780631ec0ce751461010257806335a063b41461012d5780633c4c59df146101445780633fa4f2451461016f575b600080fd5b3480156100b857600080fd5b506100c1610253565b6040516100ce9190610995565b60405180910390f35b3480156100e357600080fd5b506100ec6102e1565b6040516100f991906109d0565b60405180910390f35b34801561010e57600080fd5b506101176102e7565b60405161012491906109d0565b60405180910390f35b34801561013957600080fd5b506101426102ed565b005b34801561015057600080fd5b50610159610479565b6040516101669190610a2c565b60405180910390f35b34801561017b57600080fd5b5061018461049f565b60405161019191906109d0565b60405180910390f35b3480156101a657600080fd5b506101af6104a5565b6040516101bc91906109d0565b60405180910390f35b6101cd6104ab565b005b3480156101db57600080fd5b506101e4610622565b6040516101f19190610a2c565b60405180910390f35b34801561020657600080fd5b5061020f610648565b60405161021c9190610abe565b60405180910390f35b34801561023157600080fd5b5061023a61065b565b005b34801561024857600080fd5b506102516107f5565b005b6006805461026090610b08565b80601f016020809104026020016040519081016040528092919081815260200182805461028c90610b08565b80156102d95780601f106102ae576101008083540402835291602001916102d9565b820191906000526020600020905b8154815290600101906020018083116102bc57829003601f168201915b505050505081565b60035481565b60045481565b600160009054906101000a900473ffffffffffffffffffffffffffffffffffffffff1673ffffffffffffffffffffffffffffffffffffffff163373ffffffffffffffffffffffffffffffffffffffff1614610374576040517f61ff8e0100000000000000000000000000000000000000000000000000000000815260040160405180910390fd5b600080600381111561038957610388610a47565b5b600760009054906101000a900460ff1660038111156103ab576103aa610a47565b5b146103e2576040517fbaf3f0f700000000000000000000000000000000000000000000000000000000815260040160405180910390fd5b6003600760006101000a81548160ff0219169083600381111561040857610407610a47565b5b0217905550600160009054906101000a900473ffffffffffffffffffffffffffffffffffffffff1673ffffffffffffffffffffffffffffffffffffffff166108fc479081150290604051600060405180830381858888f19350505050158015610475573d6000803e3d6000fd5b5050565b600160009054906101000a900473ffffffffffffffffffffffffffffffffffffffff1681565b60005481565b60055481565b60008060038111156104c0576104bf610a47565b5b600760009054906101000a900460ff1660038111156104e2576104e1610a47565b5b14610519576040517fbaf3f0f700000000000000000000000000000000000000000000000000000000815260040160405180910390fd5b60005460026105289190610b68565b3414610569576040517f08c379a000000000000000000000000000000000000000000000000000000000815260040161056090610c34565b60405180910390fd5b600554600454118015610580575060035460045411155b156105f65733600260006101000a81548173ffffffffffffffffffffffffffffffffffffffff021916908373ffffffffffffffffffffffffffffffffffffffff1602179055506001600760006101000a81548160ff021916908360038111156105ec576105eb610a47565b5b021790555061061f565b604051806060016040528060388152602001610f02603891396006908161061d9190610e2f565b505b50565b600260009054906101000a900473ffffffffffffffffffffffffffffffffffffffff1681565b600760009054906101000a900460ff1681565b600160009054906101000a900473ffffffffffffffffffffffffffffffffffffffff1673ffffffffffffffffffffffffffffffffffffffff163373ffffffffffffffffffffffffffffffffffffffff16146106e2576040517f61ff8e0100000000000000000000000000000000000000000000000000000000815260040160405180910390fd5b60028060038111156106f7576106f6610a47565b5b600760009054906101000a900460ff16600381111561071957610718610a47565b5b14610750576040517fbaf3f0f700000000000000000000000000000000000000000000000000000000815260040160405180910390fd5b6003600760006101000a81548160ff0219169083600381111561077657610775610a47565b5b0217905550600160009054906101000a900473ffffffffffffffffffffffffffffffffffffffff1673ffffffffffffffffffffffffffffffffffffffff166108fc60005460036107c69190610b68565b9081150290604051600060405180830381858888f193505050501580156107f1573d6000803e3d6000fd5b5050565b600180600381111561080a57610809610a47565b5b600760009054906101000a900460ff16600381111561082c5761082b610a47565b5b14610863576040517fbaf3f0f700000000000000000000000000000000000000000000000000000000815260040160405180910390fd5b6002600760006101000a81548160ff0219169083600381111561088957610888610a47565b5b0217905550600260009054906101000a900473ffffffffffffffffffffffffffffffffffffffff1673ffffffffffffffffffffffffffffffffffffffff166108fc6000549081150290604051600060405180830381858888f193505050501580156108f8573d6000803e3d6000fd5b5050565b600081519050919050565b600082825260208201905092915050565b60005b8381101561093657808201518184015260208101905061091b565b83811115610945576000848401525b50505050565b6000601f19601f8301169050919050565b6000610967826108fc565b6109718185610907565b9350610981818560208601610918565b61098a8161094b565b840191505092915050565b600060208201905081810360008301526109af818461095c565b905092915050565b6000819050919050565b6109ca816109b7565b82525050565b60006020820190506109e560008301846109c1565b92915050565b600073ffffffffffffffffffffffffffffffffffffffff82169050919050565b6000610a16826109eb565b9050919050565b610a2681610a0b565b82525050565b6000602082019050610a416000830184610a1d565b92915050565b7f4e487b7100000000000000000000000000000000000000000000000000000000600052602160045260246000fd5b60048110610a8757610a86610a47565b5b50565b6000819050610a9882610a76565b919050565b6000610aa882610a8a565b9050919050565b610ab881610a9d565b82525050565b6000602082019050610ad36000830184610aaf565b92915050565b7f4e487b7100000000000000000000000000000000000000000000000000000000600052602260045260246000fd5b60006002820490506001821680610b2057607f821691505b602082108103610b3357610b32610ad9565b5b50919050565b7f4e487b7100000000000000000000000000000000000000000000000000000000600052601160045260246000fd5b6000610b73826109b7565b9150610b7e836109b7565b9250817fffffffffffffffffffffffffffffffffffffffffffffffffffffffffffffffff0483118215151615610bb757610bb6610b39565b5b828202905092915050565b7f506c656173652073656e6420696e20327820746865207075726368617365206160008201527f6d6f756e74000000000000000000000000000000000000000000000000000000602082015250565b6000610c1e602583610907565b9150610c2982610bc2565b604082019050919050565b60006020820190508181036000830152610c4d81610c11565b9050919050565b7f4e487b7100000000000000000000000000000000000000000000000000000000600052604160045260246000fd5b60008190508160005260206000209050919050565b60006020601f8301049050919050565b600082821b905092915050565b600060088302610ce57fffffffffffffffffffffffffffffffffffffffffffffffffffffffffffffffff82610ca8565b610cef8683610ca8565b95508019841693508086168417925050509392505050565b6000819050919050565b6000610d2c610d27610d22846109b7565b610d07565b6109b7565b9050919050565b6000819050919050565b610d4683610d11565b610d5a610d5282610d33565b848454610cb5565b825550505050565b600090565b610d6f610d62565b610d7a818484610d3d565b505050565b5b81811015610d9e57610d93600082610d67565b600181019050610d80565b5050565b601f821115610de357610db481610c83565b610dbd84610c98565b81016020851015610dcc578190505b610de0610dd885610c98565b830182610d7f565b50505b505050565b600082821c905092915050565b6000610e0660001984600802610de8565b1980831691505092915050565b6000610e1f8383610df5565b9150826002028217905092915050565b610e38826108fc565b67ffffffffffffffff811115610e5157610e50610c54565b5b610e5b8254610b08565b610e66828285610da2565b600060209050601f831160018114610e995760008415610e87578287015190505b610e918582610e13565b865550610ef9565b601f198416610ea786610c83565b60005b82811015610ecf57848901518255600182019150602085019450602081019050610eaa565b86831015610eec5784890151610ee8601f891682610df5565b8355505b6001600288020188555050505b50505050505056fe456d706c6f796565206f7574206f662074686520726967696f6e206973206e6f742061626c6520746f207265717565737420726566756e64a2646970667358221220c8e767b3b31336cd5b4a2e9262546e8011a41ebf405f28441df58dd4be7f2cec64736f6c634300080f0033",
  "immutableReferences": {},
  "source": "// SPDX-License-Identifier: MIT\r\npragma solidity ^0.8.11;\r\n\r\ncontract pay_geo{\r\n    uint public value;\r\n    address payable public employeer;\r\n    address payable public employee;\r\n    uint public max_dis = 10;\r\n    uint public current_add = 7;\r\n    uint public min_dis = 5;\r\n    string public Notice;\r\n    //address payable public locations;\r\n    //public uint locations;\r\n    enum State { Created, Locked, Release, Inactive}//, locations }\r\n    State public state;\r\n\r\n    constructor() payable{//initialization\r\n        employeer = payable(msg.sender) ;// cast to payable address\r\n        value = msg.value /2 ;\r\n        //locations = 12.0;\r\n    }\r\n\r\n    /// The function can be called at the current state.\r\n    error InvalidState();\r\n\r\n    /// Only the employee can call this function\r\n    error OnlyEmployee();\r\n\r\n\r\n    /// Only the Employeer can call this function\r\n    error OnlyEmployeer();\r\n\r\n    modifier inState(State state_){\r\n        if(state != state_){\r\n            revert InvalidState();\r\n        }\r\n        _;\r\n    }\r\n\r\n\r\n    modifier onlyemployee(){\r\n        if(msg.sender != employee){\r\n            revert OnlyEmployee();\r\n        }\r\n        _;\r\n    }\r\n    modifier onlyEmployeer(){\r\n            if(msg.sender != employeer){\r\n                revert OnlyEmployeer();\r\n            }\r\n            _;\r\n        }\r\n\r\n\r\n// next employee sends meny for the life of the contract desigination\r\n    function sendLocation() external inState(State.Created) payable {\r\n        //if(locations < 10.0){ \r\n        require (msg.value == (2*value), \"Please send in 2x the purchase amount\");\r\n        if(current_add >min_dis && current_add <= max_dis){\r\n            employee = payable(msg.sender);\r\n            state = State. Locked;\r\n        } else {\r\n            Notice = \"Employee out of the rigion is not able to request refund\";\r\n        }\r\n\r\n        \r\n        //}else {\r\n        //    require(msg.locations == locations, \"you are out of the intended region\");\r\n        //    state = State. Locked;\r\n        //}\r\n        \r\n    }\r\n\r\n    function confirmLocation() external inState(State.Locked){//confirmValidity\r\n        state = State.Release;\r\n        employee.transfer(value);\r\n\r\n    }\r\n\r\n    function payEmployee() external onlyEmployeer inState(State.Release){\r\n        state = State.Inactive;\r\n\r\n        employeer.transfer(3*value);\r\n    }\r\n// if the seeler chanages the his mind to cancell all the transaction with the employee\r\n    function abort() external onlyEmployeer inState(State.Created){\r\n        state = State.Inactive;\r\n        employeer.transfer(address(this).balance);\r\n    }\r\n}",
  "sourcePath": "C:\\Users\\user\\10-Accademy\\refund_usin_ethereum_smart_contract\\flutter_dapp\\contracts\\pay_geo.sol",
  "compiler": {
    "name": "solc",
    "version": "0.8.15+commit.e14f2714.Emscripten.clang"
  },
  "schemaVersion": "3.4.8",
  "updatedAt": "2022-07-16T10:04:01.643Z",
  "devdoc": {
    "kind": "dev",
    "methods": {},
    "version": 1
  },
  "userdoc": {
    "errors": {
      "InvalidState()": [
        {
          "notice": "The function can be called at the current state."
        }
      ],
      "OnlyEmployee()": [
        {
          "notice": "Only the employee can call this function"
        }
      ],
      "OnlyEmployeer()": [
        {
          "notice": "Only the Employeer can call this function"
        }
      ]
    },
    "kind": "user",
    "methods": {},
    "version": 1
  }
}